{
  "contractName": "PieMessage",
  "abi": [
    {
      "anonymous": false,
      "inputs": [
        {
          "indexed": true,
          "internalType": "address",
          "name": "sender",
          "type": "address"
        },
        {
          "indexed": true,
          "internalType": "address[]",
          "name": "receivers",
          "type": "address[]"
        },
        {
          "indexed": true,
          "internalType": "string",
          "name": "payload",
          "type": "string"
        }
      ],
      "name": "Completed",
      "type": "event"
    },
    {
      "inputs": [
        {
          "internalType": "address[]",
          "name": "receivers",
          "type": "address[]"
        },
        {
          "internalType": "string",
          "name": "payload",
          "type": "string"
        }
      ],
      "name": "record",
      "outputs": [
        {
          "internalType": "bool",
          "name": "",
          "type": "bool"
        }
      ],
      "stateMutability": "nonpayable",
      "type": "function"
    }
  ],
  "bytecode": "0x608060405234801561001057600080fd5b5061059f806100206000396000f3fe608060405234801561001057600080fd5b506004361061002b5760003560e01c80638558953414610030575b600080fd5b61004a6004803603810190610045919061035b565b610060565b60405161005791906103ee565b60405180910390f35b6000816040516100709190610483565b6040518091039020836040516100869190610552565b60405180910390203373ffffffffffffffffffffffffffffffffffffffff167f0f71a2217ebdd7f0c023167a721625e298455af24ab61af6f6ff9ad82b619c6b60405160405180910390a46001905092915050565b6000604051905090565b600080fd5b600080fd5b600080fd5b6000601f19601f8301169050919050565b7f4e487b7100000000000000000000000000000000000000000000000000000000600052604160045260246000fd5b61013d826100f4565b810181811067ffffffffffffffff8211171561015c5761015b610105565b5b80604052505050565b600061016f6100db565b905061017b8282610134565b919050565b600067ffffffffffffffff82111561019b5761019a610105565b5b602082029050602081019050919050565b600080fd5b600073ffffffffffffffffffffffffffffffffffffffff82169050919050565b60006101dc826101b1565b9050919050565b6101ec816101d1565b81146101f757600080fd5b50565b600081359050610209816101e3565b92915050565b600061022261021d84610180565b610165565b90508083825260208201905060208402830185811115610245576102446101ac565b5b835b8181101561026e578061025a88826101fa565b845260208401935050602081019050610247565b5050509392505050565b600082601f83011261028d5761028c6100ef565b5b813561029d84826020860161020f565b91505092915050565b600080fd5b600067ffffffffffffffff8211156102c6576102c5610105565b5b6102cf826100f4565b9050602081019050919050565b82818337600083830152505050565b60006102fe6102f9846102ab565b610165565b90508281526020810184848401111561031a576103196102a6565b5b6103258482856102dc565b509392505050565b600082601f830112610342576103416100ef565b5b81356103528482602086016102eb565b91505092915050565b60008060408385031215610372576103716100e5565b5b600083013567ffffffffffffffff8111156103905761038f6100ea565b5b61039c85828601610278565b925050602083013567ffffffffffffffff8111156103bd576103bc6100ea565b5b6103c98582860161032d565b9150509250929050565b60008115159050919050565b6103e8816103d3565b82525050565b600060208201905061040360008301846103df565b92915050565b600081519050919050565b600081905092915050565b60005b8381101561043d578082015181840152602081019050610422565b8381111561044c576000848401525b50505050565b600061045d82610409565b6104678185610414565b935061047781856020860161041f565b80840191505092915050565b600061048f8284610452565b915081905092915050565b600081519050919050565b600081905092915050565b6000819050602082019050919050565b6104c9816101d1565b82525050565b60006104db83836104c0565b60208301905092915050565b6000602082019050919050565b60006104ff8261049a565b61050981856104a5565b9350610514836104b0565b8060005b8381101561054557815161052c88826104cf565b9750610537836104e7565b925050600181019050610518565b5085935050505092915050565b600061055e82846104f4565b91508190509291505056fea26469706673582212205c426bc155890f53d0fe09508bea29f20e80dfb936b3160a983065eaf1be618964736f6c63430008090033",
  "immutableReferences": {},
  "source": "// SPDX-License-Identifier: MIT\npragma solidity >=0.4.22 <0.9.0;\n\ncontract PieMessage {\n\n  event Completed(address indexed sender, address[] indexed receivers, string indexed payload);\n\n  function record(address[] memory receivers, string memory payload) public returns (bool){\n    emit Completed(msg.sender, receivers, payload);\n    return true;\n  }\n\n}",
  "sourcePath": "/Volumes/Basement/Lab/demo-eth-tx/piemessage-contract/contracts/PieMessage.sol",
  "compiler": {
    "name": "solc",
    "version": "0.8.9+commit.e5eed63a.Emscripten.clang"
  },
  "schemaVersion": "3.4.3",
  "updatedAt": "2021-11-01T06:50:36.425Z",
  "devdoc": {
    "kind": "dev",
    "methods": {},
    "version": 1
  },
  "userdoc": {
    "kind": "user",
    "methods": {},
    "version": 1
  }
}