{
  "contractName": "PieMessage",
  "abi": [
    {
      "anonymous": false,
      "inputs": [
        {
          "indexed": true,
          "internalType": "address",
          "name": "sender",
          "type": "address"
        },
        {
          "indexed": true,
          "internalType": "string",
          "name": "transaction_hash",
          "type": "string"
        }
      ],
      "name": "Confirmed",
      "type": "event"
    },
    {
      "anonymous": false,
      "inputs": [
        {
          "indexed": true,
          "internalType": "address",
          "name": "sender",
          "type": "address"
        },
        {
          "indexed": true,
          "internalType": "string",
          "name": "payload",
          "type": "string"
        }
      ],
      "name": "Sent",
      "type": "event"
    },
    {
      "inputs": [
        {
          "internalType": "string",
          "name": "payload",
          "type": "string"
        }
      ],
      "name": "send",
      "outputs": [
        {
          "internalType": "bool",
          "name": "",
          "type": "bool"
        }
      ],
      "stateMutability": "nonpayable",
      "type": "function"
    },
    {
      "inputs": [
        {
          "internalType": "string",
          "name": "transaction_hash",
          "type": "string"
        }
      ],
      "name": "confirm",
      "outputs": [
        {
          "internalType": "bool",
          "name": "",
          "type": "bool"
        }
      ],
      "stateMutability": "nonpayable",
      "type": "function"
    }
  ],
  "bytecode": "0x608060405234801561001057600080fd5b50610403806100206000396000f3fe608060405234801561001057600080fd5b50600436106100365760003560e01c806366792ba11461003b578063c7ab74a41461006b575b600080fd5b610055600480360381019061005091906102bd565b61009b565b6040516100629190610321565b60405180910390f35b610085600480360381019061008091906102bd565b6100ff565b6040516100929190610321565b60405180910390f35b6000816040516100ab91906103b6565b60405180910390203373ffffffffffffffffffffffffffffffffffffffff167f2873db4c443f2bdfc1ca9161c995c63088d84fd7ce820c720d1aa338f8df3ac560405160405180910390a360019050919050565b60008160405161010f91906103b6565b60405180910390203373ffffffffffffffffffffffffffffffffffffffff167f32ca789b21b5e34d5ccf1f368636531fed1844b1063c788dbe989e515b2d756f60405160405180910390a360019050919050565b6000604051905090565b600080fd5b600080fd5b600080fd5b600080fd5b6000601f19601f8301169050919050565b7f4e487b7100000000000000000000000000000000000000000000000000000000600052604160045260246000fd5b6101ca82610181565b810181811067ffffffffffffffff821117156101e9576101e8610192565b5b80604052505050565b60006101fc610163565b905061020882826101c1565b919050565b600067ffffffffffffffff82111561022857610227610192565b5b61023182610181565b9050602081019050919050565b82818337600083830152505050565b600061026061025b8461020d565b6101f2565b90508281526020810184848401111561027c5761027b61017c565b5b61028784828561023e565b509392505050565b600082601f8301126102a4576102a3610177565b5b81356102b484826020860161024d565b91505092915050565b6000602082840312156102d3576102d261016d565b5b600082013567ffffffffffffffff8111156102f1576102f0610172565b5b6102fd8482850161028f565b91505092915050565b60008115159050919050565b61031b81610306565b82525050565b60006020820190506103366000830184610312565b92915050565b600081519050919050565b600081905092915050565b60005b83811015610370578082015181840152602081019050610355565b8381111561037f576000848401525b50505050565b60006103908261033c565b61039a8185610347565b93506103aa818560208601610352565b80840191505092915050565b60006103c28284610385565b91508190509291505056fea2646970667358221220eb1d5e353469a7d596d9b56b36620c4aeb3f651e25653203a71fba21f10b8d8d64736f6c63430008090033",
  "immutableReferences": {},
  "source": "// SPDX-License-Identifier: MIT\npragma solidity >=0.4.22 <0.9.0;\n\ncontract PieMessage {\n\n  event Sent(address indexed sender, string indexed payload);\n  event Confirmed(address indexed sender, string indexed transaction_hash);\n\n  function send(string memory payload) public returns (bool){\n    emit Sent(msg.sender, payload);\n    return true;\n  }\n\n  function confirm(string memory transaction_hash) public returns (bool){\n    emit Confirmed(msg.sender, transaction_hash);\n    return true;\n  }\n\n}",
  "sourcePath": "/Volumes/Basement/Sites/sites/piesocket/piemessage-contract/contracts/PieMessage.sol",
  "compiler": {
    "name": "solc",
    "version": "0.8.9+commit.e5eed63a.Emscripten.clang"
  },
  "schemaVersion": "3.4.3",
  "updatedAt": "2021-11-01T14:41:30.160Z",
  "devdoc": {
    "kind": "dev",
    "methods": {},
    "version": 1
  },
  "userdoc": {
    "kind": "user",
    "methods": {},
    "version": 1
  }
}